:100000000C9434000C9451000C9451000C94510049
:100010000C9451000C9451000C9451000C9451001C
:100020000C9451000C9451000C9451000C9451000C
:100030000C9451000C9451000C9451000C945100FC
:100040000C9451000C9451000C9451000C945100EC
:100050000C9451000C9451000C9451000C945100DC
:100060000C9451000C94510011241FBECFEFD8E026
:10007000DEBFCDBF11E0A0E0B1E0E4EAF9E002C0EC
:1000800005900D92A831B107D9F711E0A8E1B1E0D0
:1000900001C01D92A835B107E1F70E9454000C94ED
:1000A000D0040C94000008950E9488000E947301FF
:1000B0000E9484018823E1F38336D1F781E00E9416
:1000C0006E0080E091E00E94C70081E060E00E9445
:1000D000DB000E94CD020E94C802EACF982F9295C1
:1000E0009F7098B92A98289A2AEF30E0F901319741
:1000F000F1F72898F9013197F1F78F7088B9289AAC
:10010000C9010197F1F72898C9010197F1F70895FE
:100110000F931F938FE087B984B1876084B982E021
:1001200088B9289A0AEF10E0C8010197F1F72898DA
:10013000C8010197F1F788E20E946E00C80101979B
:10014000F1F78FE00E946E00C8010197F1F780E897
:100150000E946E001F910F910895982F92959F70A5
:1001600098B92A9A289A24EF31E0F9013197F1F7EA
:100170002898F9013197F1F78F7088B9289AC90149
:100180000197F1F72898C9010197F1F70895CF93E6
:10019000DF93EC0102C00E94AD0089918823D9F75A
:1001A000DF91CF91089581E00E946E0082EE94E08D
:1001B0000197F1F708958295880F880F807C8068F9
:1001C000860F0E946E0080E18A95F1F70895DC01A8
:1001D00012962D913C9113978D919C911197281710
:1001E000390781F01496ED91FC911597C90101969C
:1001F00013969C938E931297880F991FE80FF91FFF
:10020000718360830895FC01828193812FEF8F3F7A
:10021000920721F4EFEFFFEFCF010895880F991FA8
:100220000480F581E02DE80FF91F0190F081E02DA9
:10023000F3CFDC0112962D913C9113978FEF2F3F56
:10024000380721F4EFEFFFEFCF010895C901880FC0
:10025000991F1496ED91FC911597E80FF91F0190E5
:10026000F081E02D2150304013963C932E9312974D
:10027000EBCF20E0FC01828193818F5F9F4F09F4D7
:1002800021E0822F0895FC0140E0228133818081AA
:1002900091812817390709F441E0842F0895DF92EE
:1002A000EF92FF920F931F937C0186E090E00E94F3
:1002B000CB03D92E082F192FF801F182E0828FEF9E
:1002C0009FEF93838283C701880F991F0E94CB03FE
:1002D000F80184839583802F9D2D1F910F91FF90AE
:1002E000EF90DF900895509A519A529A539A5498E9
:1002F0005598569857985C9A5D9A5E9A5F9A589A64
:10030000599A5A9A5B9A0895F0E0589A599A5A9ACB
:100310005B9AF13049F0F13028F0F23039F0F330E7
:1003200041F406C0589805C0599803C05A9801C0B6
:100330005B9889B1E9B199B129B1E0728071E82B7C
:100340009074E92B2078E22B29B149B169B189B1C8
:10035000881F8827881F90E030E054E03695279565
:100360005A95E1F72823392350E0B5E05695479593
:10037000BA95E1F74223532370E0A6E0769567959E
:10038000AA95E1F7642375236130710521F129B144
:1003900049B169B189B1881F8827881F90E030E092
:1003A00054E0369527955A95E1F72823392350E0F4
:1003B00095E0569547959A95E1F74223532370E0CF
:1003C00086E0769567958A95E1F764237523613019
:1003D0007105E9F605C0FF5FF43009F096CF5DC006
:1003E000F43009F45AC0F130E1F0F13030F0F2307D
:1003F00061F1F33009F051C03CC0E03B51F0E13B0A
:1004000018F4E03771F407C0E03D39F0E03E49F4FC
:1004100006C089E308958FE2089588E3089587E38D
:100420000895E03B51F0E13B18F4E03771F407C068
:10043000E03D39F0E03E49F406C086E308958AE2E3
:10044000089585E3089584E30895E03B51F0E13B8E
:1004500018F4E03771F407C0E03D39F0E03E49F4AC
:1004600006C083E308958DE2089582E3089581E351
:100470000895E03B51F0E13B18F4E03771F407C018
:10048000E03D39F0E03E49F406C08DE308958BE28B
:10049000089580E3089583E6089580E00895BC01FF
:1004A00020E030E040E00FC0C901F3E0880F991F61
:1004B000FA95E1F7220F331F280F391F20533040E0
:1004C0002E0F311D4F5FFB01E40FF11DE081EE2384
:1004D00059F7C90108954B3261F04C3218F44A3291
:1004E00029F40FC04D3249F04F3299F020E030E04E
:1004F00013C09B01280F391F0FC09C01261B370B0F
:100500000BC0689F9001699F300D789F300D1124BA
:1005100003C00E94B7039B01C9010895EF92FF92A7
:100520001F93CF93DF93EC0184E190E00E944F0191
:100530007C0111C0CE016AE070E00E94B703BC01EB
:10054000605D7F4FC7010E94E700CE016AE070E066
:100550000E94B703EB01209769F710E007C0C701BD
:100560000E941901C05CDE4F88831F5FC7010E9493
:100570003901C12FD0E0882391F3C05CDE4F18828F
:1005800080E491E0DF91CF911F91FF90EF9008956B
:100590000E948E020E94C70008952F923F924F92B0
:1005A0005F927F928F929F92AF92BF92CF92DF9293
:1005B000EF92FF920F931F93DF93CF93CDB7DEB7E8
:1005C000C654D0400FB6F894DEBF0FBECDBF84E650
:1005D00090E00E944F014C0184E690E00E944F01A0
:1005E0005C017E010894E11CF11C84E1F701119289
:1005F0008A95E9F715E1C12ED12CCC0EDD1E82E3E0
:10060000F60111928A95E9F782E08FAFFE01EC5B6B
:10061000FF4F808381E0FE01E05CFF4F8083FE019D
:10062000EE5BFF4F8083C40160E070E00E94E70052
:10063000772400E0270116010E948401182F8823E7
:10064000D9F30E94AD001D3309F047C0CE010196D9
:10065000FC01E00FF11D10820E944F02BC01E72D4A
:10066000F0E0EE0FFF1FE85EFE4F9183808311C024
:10067000C5010E9419017C01C5010E9419016C018C
:10068000C4010E941901482FC601B7010E946B02E4
:10069000BC01C5010E94E700C4010E940301892B2F
:1006A00039F7C5010E940301CA5BDF4F0FB6F8940A
:1006B000DEBF0FBECDBFCF91DF911F910F91FF9095
:1006C000EF90DF90CF90BF90AF909F908F907F90F2
:1006D0005F904F903F902F900895812F8A528230E3
:1006E00020F01D3211F01F32E1F5F201E00FF11D93
:1006F0001082C2010E944F02BC01E72DF0E0EE0F14
:10070000FF1FE85EFE4F918380837394C5010E94B2
:10071000E700F101E10FF11D0081C4010E94030116
:10072000F101E80FF91F80810817A0F4C5010E94AC
:1007300019017C01C5010E9419016C01C4010E94CC
:100740001901482FC601B7010E946B02BC01C50107
:100750000E94E700C401612F70E00E94E70000E002
:100760006BCFF201E00FF11D10830F5F65CFAA1B65
:10077000BB1B51E107C0AA1FBB1FA617B70710F08C
:10078000A61BB70B881F991F5A95A9F780959095BE
:10079000BC01CD010895CF93DF93BC018230910558
:1007A00010F462E070E0A0915601B0915701ED01A4
:1007B000E0E0F0E040E050E021C0888199818617B8
:1007C000970769F48A819B81309719F0938382831C
:1007D00004C09093570180935601FE0134C06817FE
:1007E000790738F44115510519F08417950708F475
:1007F000AC01FE018A819B819C01E9012097E9F609
:1008000041155105A9F1CA01861B970B049708F4FD
:10081000BA01E0E0F0E02AC08D919C911197841715
:100820009507F9F46417750781F412968D919C91E0
:100830001397309719F09383828304C090935701E4
:1008400080935601FD0132964FC0CA01861B970B5B
:10085000FD01E80FF91F6193719302978D939C93AB
:1008600043C0FD01828193819C01D9011097A1F6BB
:100870008091540190915501892B41F4809114018C
:100880009091150190935501809354014091160168
:10089000509117014115510541F44DB75EB7809154
:1008A000120190911301481B590B20915401309172
:1008B000550124173507B0F4CA01821B930B861724
:1008C000970780F0AB014E5F5F4F8417950750F09C
:1008D000420F531F5093550140935401F901619306
:1008E000719302C0E0E0F0E0CF01DF91CF91089575
:1008F000CF93DF93009709F450C0EC0122971B823D
:100900001A82A0915601B0915701109709F140E069
:1009100050E0AC17BD0708F1BB83AA83FE0121910B
:100920003191E20FF31FAE17BF0779F48D919C91BF
:100930001197280F391F2E5F3F4F39832883129656
:100940008D919C9113979B838A834115510571F476
:10095000D0935701C093560120C012968D919C915F
:100960001397AD01009711F0DC01D3CFFA01D383C7
:10097000C28321913191E20FF31FCE17DF0769F493
:1009800088819981280F391F2E5F3F4FFA013183EB
:1009900020838A819B8193838283DF91CF91089505
:0409A000F894FFCFF9
:1009A400456E7465722045787072657373696F6EF5
:0809B4002100200058010000A1
:00000001FF
